S0120000525A555342535449434B2E73726563FE
S11300000C94CD000C94EC000C94EC000C94EC00DB
S11300100C94EC000C94EC000C94EC000C94EC00AC
S11300200C94EC000C94EC000C949C220C94EC00CA
S11300300C94EC000C94EC000C94EC000C94EC008C
S11300400C94B2190C94061A0C94751A0C94EC00C6
S11300500C94EF190C94EC000C94EC000C94EC0050
S11300600C94EC000C94EC000C94EC000C94EC005C
S11300700C94EC000C94EC000C94EC000C94EC004C
S11300800C94EC000C94EC000C94EC000C94EC003C
S11300900C94EC000C94EC0053094C067606A6076D
S11300A0A607A607A60744079C07A007A307A60759
S11300B0A607A607B007B3075D095D095D095D09D9
S11300C05D095D095D095D09B9075D095D095D09A2
S11300D05D095D095D095D095D09E50738085E088C
S11300E07108B90805094509BA0DB00DBE0DBE0D5C
S11300F0B20DBE0DB20DBE0DBE0DB40DBE0DB60DCE
S1130100B80DBC0D7F201C20CB205120CB20E41F38
S11301103C1FCB20C81F0520B720BA26785BCE74BD
S1130120B8162AEFF3CC8B4E530AE2D7B73C564CA1
S1130130B566DB1E57EEE6F4431A06DFCD9F863E16
S11301408A793A04097C1FBB12A0779B40FC00AD5E
S1130150316F9AA69E150D6C447035F064D67E48B6
S11301603D50622FC630E760F8DC5C5F08C3B9130A
S1130170A8BEE97A8165BCD22E55E590F7A77BC26B
S1130180C1EA4AAE93F2FFB3C567399849052C3FDB
S1130190388DD3CA2DE0B200000011241FBECFEF6A
S11301A0D0E2DEBFCDBF11E0A0E0B1E0E8E3FDE5C1
S11301B000E00BBF02C007900D92A039B107D9F738
S11301C022E1A0E9B1E001C01D92A936B207E1F72E
S11301D00E94EF1B0C94152E0C940000CF93DF9318
S11301E083FF74C08091940181110AC08091B2018F
S11301F09091B30101969093B3018093B20192C0A0
S1130200289880E28EBD80919701E82FF0E0EE0FF0
S1130210FF1FE856FE4F0190F081E02D893019F45C
S11302201092970103C08F5F80939701809195018D
S11302308F5F809395018091940181508093940104
S11302400DB407FEFDCF8EB58EBD80E58083809111
S1130250B10186830DB407FEFDCF8EB58F779AE08A
S1130260980F91838087EF01299621E0280F2EBDF6
S11302708091AD019091AE01A091AF01B091B00118
S113028082839383A483B5830DB407FEFDCF8EB51B
S11302908EBD899321500DB407FEFDCF2111F7CFF8
S11302A0289A289886E88EBD0DB407FEFDCF8EB53A
S11302B087838EBD0DB407FEFDCF8EB58783289A44
S11302C08781881F8827881F87832CC082FF25C0C9
S11302D00E94F22496958795779567956093AD0172
S11302E07093AE018093AF019093B001289886E893
S11302F08EBD0DB407FEFDCF8EB58093B1018EBDCA
S11303000DB407FEFDCF8EB58093B101289A80917C
S1130310B1018F718093B10105C08091AC018F5FF1
S11303208093AC01DF91CF910895CF93DF93109226
S1130330B5011092B4011092B3011092B20110925F
S1130340B1011092AD011092AE011092AF01109262
S1130350B0011092AC011092970110929601109284
S113036095018AE080939401109293011092920176
S113037010929101109290010E94961A8BEF93E0D3
S11303800197F1F700C000002E982D982C9890E169
S11303909A95F1F72D9A8FE599E00197F1F700C04E
S11303A000008FE599E00197F1F700C0000023E019
S11303B040E06FE182E00E94001B8BEF93E0019725
S11303C0F1F700C0000040E06FE181E00E94E91A0B
S11303D0883071F520E043E068E083E00E94001B70
S11303E020E040E067E083E00E94001B21E047E05A
S11303F060E885E00E94001B6CE08EE00E94CE1A4B
S113040080916F00806280936F00C8E9D1E089E831
S113041090E00E943C24009759F08993999391E0CD
S1130420CC3AD907A1F782E08093000181E00FC0A4
S11304300E94AD1AC8E9D1E0888199810E947D2487
S11304401992199281E0CC3AD807B1F780E0DF9194
S1130450CF910895CF93DF9380910001813089F08B
S1130460C8E9D1E0888199810E947D24199219926A
S113047081E0CC3AD807B1F70E94AD1A81E08093AD
S11304800001DF91CF910895CF93DF9300D0CDB7D2
S1130490DEB780910001843009F0B4C080919501E9
S11304A0882309F4B7C081E08093E9008091E800D3
S11304B080FFB0C08091E8008E7F8093E800809137
S11304C0930181114FC080919201811121C0E0916B
S11304D09601F0E0EE0FFF1FE856FE4F0190F08109
S11304E0E02DF0939101E0939001218120939301F9
S11304F0822F90E0CF9656E0969587955A95E1F72E
S1130500809392012F7371F58F5F809392012AC0BB
S1130510813039F58091E8008F778093E8008FB7B8
S11305208A83F89480919601893019F41092960187
S113053003C08F5F809396018091950181508093D1
S11305409501809194018F5F809394018091B4010F
S11305509091B50101969093B5018093B4018A817D
S11305604FC07698E0919001F09191018081809341
S1130570F1008091900190919101019690939101E5
S113058080939001809193018150809393018823FB
S113059021F08091E80085FDE5CF809192018150A2
S11305A0809392018091E8008F778093E800809196
S11305B0930181112FC08091920181112BC08FB7BB
S11305C08983F89480919601893019F410929601E8
S11305D003C08F5F80939601809195018150809331
S11305E09501809194018F5F809394018091B4016F
S11305F09091B50101969093B5018093B4018981DE
S11306008FBF08C0803131F447E851E068E081E0F1
S11306100E9454220F900F90DF91CF910895CF93B1
S1130620C82F80910001823019F585EF8C0F80313D
S1130630F8F423E040E06FE182E00E94001B8BEFBE
S113064093E00197F1F700C0000040E06FE181E022
S11306500E94E91A883061F42C2F40E06FE10E9477
S1130660001B40E06FE188E00E94E91A91E0C813A2
S113067090E0892FCF910895CF93DF931F92CDB748
S1130680DEB780910001823011F080E048C023E0A1
S113069040E06FE182E00E94001B8BEF93E0019742
S11306A0F1F700C0000040E06FE181E00E94E91A28
S11306B0883059F726E040E06FE182E00E94001B99
S11306C087E691E00197F1F700C0000040E06FE198
S11306D081E00E94E91A8630C1F68FB78983F894C5
S11306E01092970110929601109295018AE08093DE
S11306F09401109293011092920110929101109220
S113070090011092B5011092B40189818FBF8EEED1
S113071090E00E948F1B84E08093000181E00F90A1
S1130720DF91CF91089580910001843011F080E031
S113073008950E94A11B23E040E06FE182E00E9443
S1130740001B8BEF93E00197F1F700C0000040E03D
S11307506FE181E00E94E91A883049F782E08093D2
S1130760000181E0089580910001823051F540E05C
S11307706FE181E00E94E91A883019F56AE171E0BD
S11307808FE70E94481B6FE086E30E94CE1A60E068
S11307908DE30E94CE1A2E9A29E040E06FE182E0B8
S11307A00E94001B87E691E00197F1F700C000006A
S11307B040E06FE181E00E94E91A893021F00E9453
S11307C0961A80E0089562E082E00E94CE1A88E0E2
S11307D08093000181E0089580910001883011F038
S11307E080E008950E94961A8823D1F392E09093B2
S11307F000010895E4E6F0E080818F77808380E251
S11308008093B800E9EBF0E08081808381E0089573
S1130810E4E6F0E0808180688083089561157105C5
S113082009F484C094EA9093BC009FEF9150209106
S1130830BC0027FD02C09111F9CF2091B900287F97
S1130840283011F080E06BC09923E1F390EA909393
S1130850BB0094E89093BC009FEF91502091BC00A2
S113086027FD02C09111F9CF2091B900287F2831CA
S113087049F7992339F38093BB0084E88093BC0043
S11308808FEF81509091BC0097FD02C08111F9CF88
S11308909091B900987F9832A9F6882399F284EA56
S11308A08093BC008FEF81509091BC0097FD02C0F3
S11308B08111F9CF9091B900987F903119F688236E
S11308C009F281EA8093BB0084E88093BC008FEF37
S11308D081509091BC0097FD02C08111F9CF909195
S11308E0B900987F903409F0ADCF882309F4AACFDA
S11308F084E88093BC008FEF81509091BC0097FDF9
S113090002C08111F9CF9091B900987F983511F008
S1130910811198CF8091BB00FB01808381E094E931
S11309209093BC0090E89093BC00089580E00895F3
S113093024E02093E9002091E8002E7F2093E80032
S1130940FC018081882311F08BE801C080E880934A
S1130950F1008091E8008F778093E8008091D001C6
S11309609091D1010C947D2424E02093E9002091FE
S1130970E8002E7F2093E800FC018085882311F095
S11309808BE801C080E88093F1008091E8008F77C4
S11309908093E8008091CC019091CD010C947D244A
S11309A024E02093E9002091E8002E7F2093E800C2
S11309B08F5B9F4FFC018081882311F08BE801C07D
S11309C080E88093F1008091E8008F778093E800BD
S11309D08091CA019091CB010C947D2424E0209352
S11309E0E9002091E8002E7F2093E800FC01848137
S11309F0882311F08BE806C081E08093BD110E942A
S1130A009C1780E88093F1008091E8008F778093B1
S1130A10E8008091CE019091CF010C947D24892B24
S1130A2051F484E08093E9008091E8008E7F809304
S1130A30E80081E80FC088E296E00E943F2381111C
S1130A4012C084E08093E9008091E8008E7F809357
S1130A50E80085E98093F1008091E8008F77809326
S1130A60E8000C943D220895CF93DF931F92CDB7F5
S1130A70DEB72091BC0121110AC08091B60190918A
S1130A80B70101969093B7018093B60130C0A0914D
S1130A90BF01B0E0AA0FBB1FA054BE4F0D90BC9184
S1130AA0A02D2FB72983F8942091BF01243019F485
S1130AB01092BF0103C02F5F2093BF012091BD019D
S1130AC02F5F2093BD012091BC0121502093BC01D4
S1130AD029812FBF25E52C932AE011962C93119799
S1130AE0129628E0FC0101900D922A95E1F70F90EF
S1130AF0DF91CF910895CF93DF931F92CDB7DEB7E7
S1130B002091BC0121110AC08091B6019091B701D6
S1130B1001969093B7018093B60135C0E091BF016F
S1130B20F0E0EE0FFF1FE054FE4FA081B1812FB71C
S1130B302983F8942091BF01243019F41092BF0145
S1130B4003C02F5F2093BF012091BD012F5F20932D
S1130B50BD012091BC0121502093BC0129812FBFEC
S1130B6024E52C932CE011962C931197FC01819190
S1130B70919113969C938E931297149688E001900A
S1130B800D928A95E1F70F90DF91CF910895CF935D
S1130B90DF931F92CDB7DEB7DC018091BC018111D8
S1130BA00AC08091B6019091B70101969093B70164
S1130BB08093B60149C0E091BF01F0E0EE0FFF1F42
S1130BC0E054FE4F0190F081E02D8FB78983F894B3
S1130BD08091BF01843019F41092BF0103C08F5F6C
S1130BE08093BF018091BD018F5F8093BD0180918F
S1130BF0BC0181508093BC0189818FBF83E58083D0
S1130C0016968C911697885F818311968D919C918D
S1130C1012979383828313968D919C911497958355
S1130C20848315968C911597868316968C911697C6
S1130C30878316964C91169750E0BD01695F7F4FEC
S1130C40CF0108960E94182E0F90DF91CF9108953E
S1130C500F931F93CF93DF93EC0184E08093E9001B
S1130C608091E8008E7F8093E8008091E8008460A2
S1130C708093E8004881433729F48981823309F05D
S1130C801CC331C350E04832510508F016C3FA01C1
S1130C90E45BFF4F0C944B2E84E08093E900809139
S1130CA0E8008E7F8093E80084E88093F1008AE076
S1130CB08093F10082E58093F1008AE58093F1004E
S1130CC085E58093F10083E58093F10092E49093AD
S1130CD0F1008093F10084E58093F10089E480932E
S1130CE0F10083E48093F1008BE4F0C284E080930C
S1130CF0E9008091E8008E7F8093E800898181116A
S1130D0008C085E88093F10081E08093F10089E1D7
S1130D10DDC2813021F495E89093F10006C0823061
S1130D2039F485E88093F10081E08093F100CEC22C
S1130D30803C61F485E88093F10082E08093F100C7
S1130D4081E08093F1001092F100C2C2813C09F06D
S1130D5047C185E88093F100809101018093F100FF
S1130D60209101013091020140910301509104014D
S1130D70609105017091060180910701909108012D
S1130D8008E00E945A2E2093F10020910101309135
S1130D900201409103015091040160910501709199
S1130DA00601809107019091080100E10E945A2EEA
S1130DB02093F1002091010130910201409103013F
S1130DC05091040160910501709106018091070121
S1130DD09091080108E10E945A2E2093F10020917D
S1130DE0010130910201409103015091040160918D
S1130DF0050170910601809107019091080100E2BC
S1130E000E945A2E2093F100209101013091020199
S1130E104091030150910401609105017091060114
S1130E20809107019091080108E20E945A2E2093B4
S1130E30F100209101013091020140910301509190
S1130E400401609105017091060180910701909160
S1130E50080100E30E945A2E2093F1002091010121
S1130E603091020140910301509104016091050108
S1130E7070910601809107019091080108E30E9496
S1130E805A2E2093F10024C21092BF011092BE0189
S1130E901092BD0185E08093BC011092BB011092B9
S1130EA0BA011092B9011092B8011092B7011092D0
S1130EB0B6010E942A020E940C2681E08093D2018E
S1130EC08981811108C00E949501811102C083E8C3
S1130ED02AC082E023C0833029F52091010130919A
S1130EE00201409103015091040160910501709148
S1130EF0060180910701909108010E94B72588237B
S1130F0031F387EC95E00E9434268BE795E00E944C
S1130F104B2684E395E00E94622684E08093D2010C
S1130F2080E801C082E894E09093E9009091E800A1
S1130F309E7F9093E800CAC189810E940F03C1C0BB
S1130F400E943C03BEC00E949303BBC084E0809314
S1130F50E9008091E8008E7F8093E80083E9B6C1C0
S1130F600E94B30302C00E94EC038111AEC093E857
S1130F70ADC084E08093E9008091E8008E7F809387
S1130F80E80080E88093F1008091E8008F778093F7
S1130F90E8000E943D222FE788E391E02150804041
S1130FA09040E1F700C0000065E38FE090E00E940C
S1130FB0292E28E088E190E00FB6F894A895809354
S1130FC060000FBE20936000FFCF8E818F3550F0FC
S1130FD084E08093E9008091E8008E7F8093E800AC
S1130FE082E874C187E290E00E943C24FC01909363
S1130FF0D1018093D001009751F484E08093E900FB
S11310008091E8008E7F8093E80080E95FC11082C0
S113101089819A81928381838B8183838C81848368
S11310208E818683CE010796908787838D81858301
S113103088E994E092878187CF010E94F526811187
S11310404CC184E08093E9008091E8008E7F809316
S1131050E8008BE88093F1008091E8008F7780931B
S1131060E8008091D0019091D1010E947D2435C186
S113107083E090E00E943C248C01009799F08981E0
S1131080F80180838A819B8192838183C8010E94B5
S11310900929811102C0C2E801C0C0E8C8010E9448
S11310A07D2401C0C0E984E08093E9008091E800D8
S11310B08E7F8093E800C093F1000AC189810E9469
S11310C0DE2D811102C092E801C090E884E0809393
S11310D0E9008091E8008E7F8093E8009093F1000E
S11310E0F7C08FE190E00E943C249093CF0180935D
S11310F0CE01892B81F484E08093E9008091E8009B
S11311008E7F8093E80080E98093F1008091E8006D
S11311108F778093E800E091CE01F091CF0189812F
S11311209A81918380838B8182838C8183838D8157
S113113084838E8185838EEE94E097838683CF01AA
S11311400E9498298111C9C084E08093E9008091AC
S1131150E8008E7F8093E8008BE88093F100809113
S1131160E8008F778093E8008091CE019091CF01C1
S11311707CCF8FE190E00E943C249093CD0180933A
S1131180CC01892B81F484E08093E9008091E8000C
S11311908E7F8093E80080E98093F1008091E800DD
S11311A08F778093E8008091CC019091CD01FE016E
S11311B0319628E0DC0101900D922A95E1F729850A
S11311C0FC0120872A8521872B8522872C8523876C
S11311D024EB34E0358724870E94DF2A81117DC007
S11311E084E08093E9008091E8008E7F8093E8009A
S11311F08BE88093F1008091E8008F778093E8007A
S11312008091CC019091CD0130CF8AE890E00E948A
S11312103C249093CB018093CA01892B81F484E010
S11312208093E9008091E8008E7F8093E80080E954
S11312308093F1008091E8008F778093E800E0913B
S1131240CA01F091CB01898180838A81818380EDF9
S113125094E093838283CF010E94D42881113DC0FE
S113126084E08093E9008091E8008E7F8093E80019
S11312708BE88093F1008091E8008F778093E800F9
S11312808091CA019091CB01F0CE0E94E92D882370
S113129051F084E08093E9008091E8008E7F809390
S11312A0E8008BE813C084E08093E9008091E800B3
S11312B08E7F8093E80080E809C084E08093E90091
S11312C08091E8008E7F8093E8008DE88093F100A0
S11312D08091E8008F778093E800DF91CF911F9190
S11312E00F910C943D22DF91CF911F910F9108959E
S11312F00F931F93CF93DF9300D01F92CDB7DEB728
S11313001092D1011092D0010E94FD0A2093010194
S1131310309302014093030150930401609305014B
S11313207093060180930701909308011092B7010E
S11313301092B60100EC11E083E990E00E943C2495
S1131340009719F400EC11E02AC0F80181939193FD
S11313508F01F1E00A3C1F0779F7209101013091D8
S113136002014091030150910401609105017091C3
S1131370060180910701909108010E94DB2082E020
S113138089838FE095E09B838A83CE0101960E9436
S1131390FE218111D7CF81E08093D20112C0F801E0
S11313A0808191810E947D24F801119211928F0114
S11313B0F1E00A3C1F0799F70E942D220E945A214E
S11313C080E00F900F900F90DF91CF911F910F91BC
S11313D00895CF93DF938091D2018823F1F0109286
S11313E0D2018091D0019091D1010E947D2410926C
S11313F0D1011092D001C0ECD1E0888199810E9482
S11314007D241992199281E0CA3CD807B1F70E9451
S11314102D22DF91CF910C945A21DF91CF91089521
S1131420CF93DF9300D0CDB7DEB78091D201843063
S113143009F0A0C08091BD01882309F49BC081E01C
S11314408093E9008091E80080FF94C08091E800D7
S11314508E7F8093E8008091BB01811149C0809107
S1131460BA01811121C0E091BE01F0E0EE0FFF1F2F
S1131470E054FE4F0190F081E02DF093B901E09328
S1131480B80121812093BB01822F90E0CF9666E0C2
S1131490969587956A95E1F78093BA012F7341F584
S11314A08F5F8093BA0124C0813011F58091E800E8
S11314B08F778093E8008FB78A83F8948091BE0178
S11314C0843019F41092BE0103C08F5F8093BE0173
S11314D08091BD0181508093BD018091BC018F5FDB
S11314E08093BC018A8145C08091E80085FF17C0C4
S11314F0E091B801F091B90180818093F10080916D
S1131500B8019091B90101969093B9018093B80103
S11315108091BB0181508093BB018111E5CF809103
S1131520BA0181508093BA018091E8008F7780934B
S1131530E8008091BB0181111DC08091BA01811125
S113154019C08FB78983F8948091BE01843019F44F
S11315501092BE0103C08F5F8093BE018091BD01D4
S113156081508093BD018091BC018F5F8093BC0149
S113157089818FBF0F900F90DF91CF9108950F93C2
S11315801F93CF93DF931F92CDB7DEB70E94FA0368
S1131590182F811103C00E9408041FC080E090E04E
S11315A00E94212E082F8FEF8983BE016F5F7F4F2A
S11315B080E00E940E048981823411F482E005C027
S11315C0023431F40E94080481E08093D30105C001
S11315D00E9408041092D30110E0812F0F90DF9134
S11315E0CF911F910F9108958091D301823011F40E
S11315F00E9408041092D3010895CF93DF93CDB7CE
S1131600DEB728970FB6F894DEBF0FBECDBF1982A0
S11316101A821B821C821D821E821F821886809160
S1131620D301823089F5BE01685F7F4F84E00E9458
S11316300E04BE01695F7F4F85E00E940E04BE0167
S11316406A5F7F4F86E00E940E04BE016B5F7F4F8E
S113165087E00E940E04BE016C5F7F4F88E00E9409
S11316600E04BE016D5F7F4F89E00E940E04BE012F
S11316706E5F7F4F8AE00E940E04BE016F5F7F4F52
S11316808BE00E940E042AC0813041F584E090E092
S11316900E94212E888785E090E00E94212E8F836E
S11316A086E090E00E94212E8E8387E090E00E94E5
S11316B0212E8D8388E090E00E94212E8C8389E086
S11316C090E00E94212E8B838AE090E00E94212EDC
S11316D08A838BE090E00E94212E898329813A81BC
S11316E04B815C816D817E818F81988528960FB6B0
S11316F0F894DEBF0FBECDBFDF91CF9108950E9455
S11317007C1D86E10C94161ECF93DF9300D0CDB7D9
S1131710DEB7EFB7EA83F894E1E0E0930901EA81E8
S1131720EFBF2093C7113093C8114093C911509350
S1131730CA116093CB117093CC118093CD11909307
S1131740CE1110927D0210927C0210927B021092B4
S11317507A02109279021092780210927702109213
S11317607602109275021092740210927302109213
S1131770720281E00E944D17882349F08FB7898354
S1131780F8941092090189818FBF81E001C080E043
S11317900F900F90DF91CF9108950E945E1D1092DB
S11317A07D0210927C0210927B0210927A021092B7
S11317B079021092780210927702109276021092B7
S11317C075021092740281E080930901089580915A
S11317D07C0290917D020895CF93DF931F92CDB741
S11317E0DEB72FB72983F89490937D0280937C020F
S11317F089818FBF0F90DF91CF91089580917A02F4
S113180090917B020895CF93DF931F92CDB7DEB7FB
S11318102FB72983F89490937B0280937A0289816D
S11318208FBF0F90DF91CF910895809178029091AE
S113183079020895CF93DF931F92CDB7DEB72FB708
S11318402983F894909379028093780289818FBFD9
S11318500F90DF91CF910895809176029091770255
S11318600895CF93DF931F92CDB7DEB72FB72983A7
S1131870F894909377028093760289818FBF0F90BA
S1131880DF91CF910895809174029091750208952B
S1131890CF93DF931F92CDB7DEB72FB72983F89488
S11318A0909375028093740289818FBF0F90DF91AA
S11318B0CF91089580917202909173020895CF930D
S11318C0DF931F92CDB7DEB78FB78983F894109258
S11318D073021092720289818FBF0F90DF91CF91B2
S11318E00895CF93DF931F92CDB7DEB72FB7298327
S11318F0F894909373028093720289818FBF0F9042
S1131900DF91CF910895CF93FC01C08161EF71E025
S113191082E08C0F0E94061E811103C0CF910C94AB
S11319207F0BEC2FF0E0EF50FE4F81818093F001AC
S11319308091F2012091F30190E0922B83FDEECF90
S1131940582F5770533011F0523040F75093D40150
S1131950492F4695469543704093D6019C0124E057
S1131960329F212D33271124622F2093E10141114D
S113197002C0222399F22091F4012093D501109200
S1131980D9011092DA011092DB011092DC0110925D
S1131990DD011092DE011092DF011092E001442378
S11319A009F441C0423091F42091F5013091F601DF
S11319B03093D8012093D7012091F7013091F80199
S11319C03093DA012093D90128E02EC0433009F086
S11319D0A5CF2091F5013091F6013093D8012093E1
S11319E0D7012091F7012093D9012091F801209388
S11319F0DA012091F9012093DB012091FA0120936F
S1131A00DC012091FB012093DD012091FC01209356
S1131A10DE012091FD012093DF012091FE0120933E
S1131A20E0012EE001C024E01092E4011092E501EF
S1131A301092E6011092E7011092E8011092E90178
S1131A401092EA011092EB016623A1F186FD0BC00E
S1131A50E22FF0E0EF50FE4F808191819093E301FB
S1131A608093E2012E5FE22FF0E0EF50FE4F6230F0
S1131A7041F4808191819093E5018093E4012E5F8C
S1131A8019C080818093E40181818093E501828182
S1131A908093E60183818093E70184818093E80148
S1131AA085818093E90186818093EA01878180930F
S1131AB0EB01285F533049F4E22FF0E0EF50FE4F82
S1131AC080818093EC012F5F02C01092EC01822F81
S1131AD090E08F509E4F9093EE018093ED01C150A2
S1131AE0C21BC093EF01513029F0533031F084ED23
S1131AF090E105C089E095E102C087E692E164EDDA
S1131B0071E00E943F23882309F408CFCF91089500
S1131B100F931F93CF93DF93082FEB010E94641D53
S1131B20811102C010E00AC089E10E94161E182F1C
S1131B308823C1F3BE01802F0E94E31D812FDF9112
S1131B40CF911F910F9108954091090150E0FA013E
S1131B503297EE30F10590F4EC58FF4F0C944B2E75
S1131B600C94D5140C94110F0C94B6100C94751697
S1131B700C94B1160C945B190C9448128091BD110D
S1131B8081110C947F0B0C94431D1F93CF93DF930F
S1131B901F92CDB7DEB7182F0E94430CFC010097AB
S1131BA091F0109392028EE792E009950E947C1DB9
S1131BB086E10E94161E8FB78983F89485E080938E
S1131BC0090189818FBF0F90DF91CF911F910895F3
S1131BD00F931F93CF93DF9300D0CDB7DEB78C0163
S1131BE0809109018111E0C00115110509F4DCC0DF
S1131BF0D8011D968D919C911E97009709F4D4C02D
S1131C009801215F3F4F3093B1022093B00290932B
S1131C10AF028093AE028C918B50803108F0C4C027
S1131C2012968D919C911397019609F4BDC0F80109
S1131C3021818EEF820F823008F0B6C0223041F449
S1131C40848195819093C4118093C31188EC27C03B
S1131C50D801E48115967C91159716966C91169788
S1131C6017965C91179718964C91189719963C9172
S1131C7019971A969C911A971B968C91E093CF1101
S1131C807093D0116093D1115093D2114093D3111A
S1131C903093D4119093D5118093D6118CEC93E2A8
S1131CA090933D1180933E118091BF1191E0980F64
S1131CB09093BF1180933F11F80182819381909397
S1131CC0411180934011223041F484819581909395
S1131CD043118093421127E00AC088E0F80134964A
S1131CE0A2E4B1E101900D928A95E1F72DE0E22F93
S1131CF0F0E0E35CFE4E8FEF8083E1E0E20FF0E082
S1131D00E35CFE4E8083E2E0E20FF0E0E35CFE4E33
S1131D108091C71180838091C81181838091C911FA
S1131D2082838091CA1183838091CB1184838091B3
S1131D30CC1185838091CD1186838091CE118783C8
S1131D40EAE0E20FF0E0E35CFE4E81E08083D8013C
S1131D501C968C911C97EBE0E20FF0E0E35CFE4EE6
S1131D60808312968D919C9113972A830E94131756
S1131D70811118C0F80180810E94811E2A81882364
S1131D8089F06DE371E18EE0820F0E94880D882353
S1131D9049F09FB79983F89496E09093090199814B
S1131DA09FBF03C00E94431D80E00F900F90DF91FE
S1131DB0CF911F910F9108950F931F93CF93DF93AA
S1131DC000D01F92CDB7DEB78B019FB7882331F0C7
S1131DD09A83F894109209019A8106C09983F89421
S1131DE094E09093090199819FBF8B830E94431DC6
S1131DF0A091B002B091B1028B8112968C9312978C
S1131E0011961C930E93E091AE02F091AF02CD01B6
S1131E1009950F900F900F90DF91CF911F910F9123
S1131E200895CF93DF9300D01F92CDB7DEB7FC01A6
S1131E308081823040F580910901883079F486E10F
S1131E400E94161E811102C081EE24C08FB78A83BE
S1131E50F89489E0809309018A8107C08FB7898348
S1131E60F89487E08093090189818FBF20E030E0F6
S1131E7048E55FE060E070EF80E090E00E941525A7
S1131E80882311F30FC0853021F08330E9F28BEE03
S1131E9001C089EE8B830E946B256FEF7FEF8B81EE
S1131EA00E94DC0E0F900F900F90DF91CF91089558
S1131EB0CF93DF9300D0CDB7DEB78091090187308F
S1131EC009F04CC083E280933D1180EC80933E1175
S1131ED08091BF1191E0980F9093BF1180933F11AF
S1131EE09091C5118091C611909340118093411136
S1131EF08091C711809342118091C811809343113E
S1131F008091C911809344118091CA118093451125
S1131F108091CB11809346118091CC11809347110D
S1131F208091CD11809348118091CE1180934911F5
S1131F3084E080934A116DE371E180E10E94880D91
S1131F40811104C06FEF7FEF81EF0DC08FB78983DC
S1131F50F89488E080930901898116C0893031F4AE
S1131F606FEF7FEF89EE0E94DC0E0FC08C3021F4FE
S1131F7080EF0E94C50D09C00E94431D8FB78A835C
S1131F80F894109209018A818FBF0F900F90DF910E
S1131F90CF910895EF92FF920F931F93CF93DF9306
S1131FA01F92CDB7DEB720910901253009F0A7C0F3
S1131FB0009709F4A4C023E6209393022CEC209309
S1131FC094022091BF1131E0320F3093BF1120935E
S1131FD095022091C5113091C61130939702209338
S1131FE0960248E0FC01A8E9B2E001900D924A95FE
S1131FF0E1F70091C7111091C811B091C911A091D6
S1132000CA11F090CB11E090CC117091CD11609178
S1132010CE110093A0021093A102B093A202A09348
S1132020A302F092A402E092A5027093A602609328
S1132030A70242E04093A802FC01408551855093D9
S1132040AA024093A90242854093AB0230937F02D7
S113205020937E0223E02093800200938102109358
S11320608202B0938302A0938402F0928502E092EC
S11320708602709387026093880220938902E0812C
S1132080DC0111967C91119712966C91129713961C
S11320905C91139714964C91149715963C9115974F
S11320A016962C91169717968C91E0938A0270934A
S11320B08B0260938C0250938D0240938E02309376
S11320C08F0220939002809391028FB78983F894B2
S11320D08CE08093090189818FBF20E030E048E5DE
S11320E05FE060E070EE81E090E00E941525182F1B
S11320F0811106C080E090E00E94580F01C010E0FA
S1132100812F0F90DF91CF911F910F91FF90EF904E
S113211008951F93CF93DF931F92CDB7DEB71FEFC0
S113212085E38A95F1F7000011500E94111E893051
S113213019F01111F5CF02C0111104C081EE0E94F3
S1132140C50D0FC063E972E08BE10E94880D8823FE
S1132150A9F38FB78983F8948BE08093090189816F
S11321608FBF0F90DF91CF911F910895FC01808163
S1132170882349F0853021F0833021F481EE03C0B7
S113218089EE01C08BEE0C94C50DCF93DF93EC0167
S11321900E945A0CFC01CE01309711F00995CE0132
S11321A0DF91CF910C947D242F923F924F925F92B6
S11321B06F927F928F929F92AF92BF92CF92DF9253
S11321C0EF92FF920F931F93CF93DF93CDB7DEB7B8
S11321D029970FB6F894DEBF0FBECDBF99878887C5
S11321E0FC01758470923D114684578450923F11CE
S11321F040923E11109240111092411110924211DE
S113220010924311109244111092451110924611EC
S113221010924711709688E0A0E4B1E101900D920C
S11322208A95E1F7F091C211FF83F0934811E88594
S1132230F985A18DB28D10924A111092491111960F
S11322408C91119790E0982F882790934A1180934E
S113225049112C91822B90934A1180934911848DBA
S113226080934B1180910901823009F064C0809001
S11322701D1190901E11D4011396F401F281F9837B
S1132280E0914011F0914111FB83F0914211FC83E4
S113229060904311F0914411FD83F0914511FE8348
S11322A03090461120904711F0E08981F817B1F180
S11322B011968D919C9112974816590661F58C914F
S11322C0781229C01396AC9013971496BC90149767
S11322D01596CC9015971696DC9016971796EC9059
S11322E017971896FC90189719960C9119971A96A7
S11322F01C911A972E2F3B814C81562D6D817E8126
S1132300832D922D0E94762E31F41B968C911B976F
S11323109F81981781F0FF5F1F96C7CFF43058F460
S11323208FE0EDE3F1E101900D928A95E1F7F4017C
S113233082818F5F8283E885F985838D8823E9F024
S113234080E190E00E943C244C010097B1F0E885C4
S1132350F9858181D4018D938FE0EDE3F1E1019062
S11323600D928A95E1F7B40185EC90E10E943F2338
S1132370811103C0C4010E947D248091BD1181118B
S113238004C0809109018230D9F486E129960FB600
S1132390F894DEBF0FBECDBFDF91CF911F910F9197
S11323A0FF90EF90DF90CF90BF90AF909F908F9071
S11323B07F906F905F904F903F902F900C94161EDB
S11323C029960FB6F894DEBF0FBECDBFDF91CF9133
S11323D01F910F91FF90EF90DF90CF90BF90AF903F
S11323E09F908F907F906F905F904F903F902F9031
S11323F00895CF93DF931F92CDB7DEB78091D711A5
S11324009091D8118F3F2FEF920709F43DC010929D
S11324103D1120E820933E112091BF1131E0320F8D
S11324203093BF1120933F113091C5112091C611F3
S113243030934011209341118093421190934311A2
S11324408091BE11811103C08FEF9FE202C08FEF14
S11324509FE62091BC1121119068909345118093BF
S1132460441110924611109247116DE371E18DE011
S11324700E94880D882341F08FB78983F8948FE0F8
S11324808093090189818FBF0F90DF91CF910895C7
S1132490CF93DF931F92CDB7DEB786E10E94161E5D
S11324A08FB78983F89485E08093090189818FBF70
S11324B00F90DF91CF91089585E38A95F1F700009D
S11324C00E94111E8930C1F786E10C94161EDF921A
S11324D0EF92FF920F931F93CF93DF931F92CDB789
S11324E0DEB78C01DC0158968C91813029F58091FE
S11324F009018530F1F48091BC118823D1F00E9448
S1132500FE0B9C010097A9F0F801709688E0AFE1FA
S1132510B1E101900D928A95E1F7D8015996ED91B8
S1132520FC915A978081809327118FE191E1F90101
S113253009950E945C12FEC0833009F044C080916A
S1132540090184508230A8F70E94150C9C01009761
S113255081F3F801709688E0AFE1B1E101900D924A
S11325608A95E1F7D8015996ED91FC915A978081AB
S1132570809327118FE191E1F90109958091090177
S1132580843009F0D7C00E94431D1092CF111092DD
S1132590D0111092D1111092D2111092D311109225
S11325A0D4111092D5111092D6118FEF9FEF909302
S11325B0C4118093C3118FB78983F89410920901D1
S11325C089818FBFB7C0843051F4809109018C3068
S11325D009F0AFCF0E946B250E948910ABC08630F2
S11325E0C9F480910901853009F0A3CF0E942C0C15
S11325F09C01009709F49DCFF801709688E0AFE143
S1132600B1E101900D928A95E1F78FE191E1F90131
S1132610099590C0873041F480910901853009F013
S113262088CF0E94F91186C0883009F04DC080918E
S11326300901823009F07DCF0E946B2528E040E03B
S11326406FE182E00E94001BD8015B968C91873079
S113265019F058EEF52E01C0F12CF801018D128D00
S1132660D80111968C91119790E0982F88272C917E
S1132670822B0E941317F801838190E0982F8827FA
S11326802281822B9093C4118093C311868190E0A0
S1132690982F88272581822B8F3FFFEF9F0711F00A
S11326A00E941317D80114968C910E943B176091D5
S11326B01D1170911E11FB01F08284EB97E10E94C1
S11326C03F23811137C035CF823009F032CF80915A
S11326D00901893009F02DCF0E946B25D801599644
S11326E0ED91FC915A97E180F12CFE2CEE2480812F
S11326F0E82AD280C7010E942717F80180898093B5
S1132700CF1181898093D01182898093D1118389DB
S11327108093D21184898093D31185898093D411B5
S113272086898093D51187898093D611B7018D2D21
S11327300E94DC0E0F90DF91CF911F910F91FF90BB
S1132740EF90DF9008950F931F93CF93DF93EC01E5
S11327500E94E70B8C0185E38A95F1F700000E9443
S1132760111E8930C1F70115110539F486E1DF9195
S1132770CF911F910F910C94161ECE01F80109956B
S1132780CE01DF91CF911F910F910C947D24CF92B4
S1132790DF92EF92FF920F931F93CF93DF931F92D9
S11327A0CDB7DEB78C01F09009018CEF8F0D82302C
S11327B010F010E0EFC001151105D9F3D8015696B9
S11327C08D919C915797892BA1F35896CD90DC90CD
S11327D05997C114D10469F3BC91BB2321F08EEF46
S11327E08B0F823030F7F801A185AA2309F4CAC0FF
S11327F08EEF8A0F8230E8F6F8018489F82FF170A1
S1132800EF2E80FF16C0A230A1F4F801248535858F
S11328104685578560897189828993892F3F3F4F07
S113282041055105610571058105910509F0AEC0A9
S1132830C0CFB13009F4BDCFA13009F4BACFD092E2
S1132840B302C092B2029801265E3F4F3093B502A4
S11328502093B402F092B602F8018589815086363D
S113286008F0A7CFE11003C041E050E002C041E20C
S113287050E08B2F90E090E4899F902D88271124BD
S11328802A2F30E0322F2227330F330F822B932B42
S11328908064842B952B80933D1190933E118091FD
S11328A0BF1191E0980F9093BF1180933F11AA2319
S11328B0E9F0F8019285838590934011809341114A
S11328C0A33059F488E03C96A2E4B1E101900D9262
S11328D08A95E1F72DE0F22E0BC0848595859093BF
S11328E043118093421197E0F92E02C083E0F82E41
S11328F0F80180818823B1F0AF2DB0E0A35CBE4E17
S1132900833049F488E0319601900D928A95E1F77D
S1132910F8E0FF0E07C0F801218132812D933C932A
S1132920F394F3948F2D90E0D80155964C915597DC
S113293050E056966D917C915797835C9E4E0E9411
S1132940182EF80185898E5F6DE371E18F0D0E9469
S1132950880D182F81110DC00E947C1D8091BD111E
S1132960811103C00E94431D15C086E10E94161EFA
S113297011C08FB78983F89483E08093090189811A
S11329808FBF08C0BB2309F414CF36CFB13009F090
S113299056CF0FCF812F0F90DF91CF911F910F91C1
S11329A0FF90EF90DF90CF900895CF93DF931F9225
S11329B0CDB7DEB7FC018081823020F0853021F470
S11329C029EE03C020E001C021EE8091B402909171
S11329D0B502FC012083E091B202F091B3020995A3
S11329E08091BD11811103C00E94431D05C00E9446
S11329F07C1D86E10E94161E8FB78983F89480910E
S1132A00B6028093090189818FBF0F90DF91CF9126
S1132A1008950F931F93CF93DF938C01FC01838D53
S1132A2090E046960E943C24EC01009779F4F5E38B
S1132A30FA95F1F700000E94111E8930C1F786E172
S1132A40DF91CF911F910F910C94161EF80185858B
S1132A50888319821A821B821C821D821E821F8215
S1132A601886833049F488E07096DE01119601904F
S1132A700D928A95E1F705C0F801808991899A83BE
S1132A8089838A859B85F8019483838382818987DE
S1132A901C861D861E861F86188A198A1A8A1B8A16
S1132AA0833049F488E03596DE011C9601900D923E
S1132AB08A95E1F705C0F801858196819D878C8709
S1132AC0F801848D8C8B838D8D8B438D50E0618DCB
S1132AD0728DCE0146960E94182EBE0183EA93E1C0
S1132AE00E943F2381110CC0CE010E947D24F5E396
S1132AF0FA95F1F700000E94111E8930C1F79FCFAB
S1132B00DF91CF911F910F9108952F923F924F9291
S1132B105F926F927F928F929F92AF92BF92CF9269
S1132B20DF92EF92FF920F931F93CF93DF931F9245
S1132B30CDB7DEB74C01809109018450823008F092
S1132B40BEC0F40181859285009709F4B8C09093C2
S1132B50161180931511C4010B969093181180934C
S1132B60171183E280933D118CEC80933E11809188
S1132B70BF1191E0980F9093BF1180933F119091F2
S1132B80C5118091C61190934011809341114080EA
S1132B90518062807380B481A58136802780A090A3
S1132BA0CF11B090D011C090D111D090D211E0903B
S1132BB0D311F090D4110091D5111091D611920136
S1132BC0A3016B2F7A2F832D922D0E94762E41F034
S1132BD088E0A2E4B1E101900D928A95E1F724C066
S1132BE040924211509243116092441170924511E7
S1132BF0B0934611A0934711309248112092491185
S1132C001092CF111092D0111092D1111092D211B2
S1132C101092D3111092D4111092D5111092D61192
S1132C208FEF9FEF0E9427179091C5118091C611D5
S1132C3090934A1180934B118091C71180934C114A
S1132C408091C81180934D118091C91180934E11C8
S1132C508091CA1180934F118091CB1180935011B0
S1132C608091CC11809351118091CD118093521198
S1132C708091CE118093531183E080935411F40119
S1132C808085809355116DE371E18BE10E94880D7D
S1132C90982E81110BC08091BD11811103C00E9437
S1132CA0431D0EC086E10E94161E0AC08FB7898399
S1132CB0F8948DE08093090189818FBF01C0912C24
S1132CC0892D0F90DF91CF911F910F91FF90EF907D
S1132CD0DF90CF90BF90AF909F908F907F906F9038
S1132CE05F904F903F902F900895CF93DF9300D043
S1132CF0CDB7DEB7FC018081E0911711F091181176
S1132D00823010F4108206C0853011F489EE01C0BF
S1132D1081EE8083E0911511F091161180911711C5
S1132D209091181109958091BE1181110AC00E94D9
S1132D30431D8FB78A83F894109209018A818FBF4B
S1132D400BC08FB78983F89485E08093090189814A
S1132D508FBF86E10E94161E0F900F90DF91CF91D6
S1132D6008950F931F93CF93DF931F92CDB7DEB7D0
S1132D708C010E94430CFC010097E9F0D8018C916E
S1132D80882349F0853021F0833021F481EE03C09B
S1132D9089EE01C08BEE8093CB0287EB92E009951C
S1132DA08FB78983F89485E08093090189818FBF67
S1132DB086E10E94161E0F90DF91CF911F910F9113
S1132DC008951092BC111092CF111092D01110924C
S1132DD0D1111092D2111092D3111092D4111092D9
S1132DE0D5111092D6118FEF9FEF9093C411809359
S1132DF0C3112091C7112093BF119093C6118093E2
S1132E00C5119093D8118093D7111092BD1184EFFE
S1132E1091E09093C1118093C0118BE08093C21113
S1132E201092BE110895CF93DF93EC010E94641DAC
S1132E30882349F0D093C611C093C511CE010E94D6
S1132E40901D80E001C088EEDF91CF910895CF936B
S1132E50DF93EC010E94641D882349F0D093D811BC
S1132E60C093D711CE010E94A21D80E001C088EE5C
S1132E70DF91CF910895CF93C82F0E94641D8111D3
S1132E8002C088EE08C08C2F0E94811E8823C9F3DB
S1132E90C093C21180E0CF9108951F93CF93DF9325
S1132EA01F92CDB7DEB7182F8FB78983F89410928D
S1132EB0090189818FBF0E94D41C811104C00E9422
S1132EC05E1D80E034C011110E94E11684EA9DE089
S1132ED00E94981E83E89CE00E94AA1E23E046E01C
S1132EE060EC8EE20E94001B24E041E06EE08CE284
S1132EF00E94001B23E044E060EF8CE20E94001B70
S1132F0087EC91E10E94B41D8091D7119091D81162
S1132F100E94A21D8091C5119091C6110E94901D1E
S1132F208091BD11811102C00E94431D81E00F9068
S1132F30DF91CF911F9108958091090184508230CF
S1132F4078F40E94641D882359F086E10E94161EBD
S1132F50811108C08091BD11811102C00E94431DDE
S1132F6088EE089580E008950F931F93CF93DF9325
S1132F701F92CDB7DEB78C018091191190911A116F
S1132F800E9413170115110569F0E0911B11F091CE
S1132F901C11C80109958FB78983F894109209010F
S1132FA089818FBF0F90DF91CF911F910F91089569
S1132FB00E94431D30913312311106C080913212A8
S1132FC08F5F809332120895A0911D11B0911E114C
S1132FD012968C911297811103C08AEE8C9301C0D2
S1132FE01C922091E11184E0289FF0011124EE51FC
S1132FF0FE4E84EB97E191838083B383A2832331D4
S113300019F41092E11103C02F5F2093E1113150A4
S1133010309333128091E0118F5F8093E011089513
S1133020DF92EF92FF920F931F93CF93DF9300D021
S11330301F92CDB7DEB78C0180910901811114C0B4
S11330400115110589F0F80183819481892B61F0C0
S1133050F080E280D180FEE0FE1530F00E94641D15
S1133060811104C00E94431D80E01AC18D2D0E946D
S11330703B178111F7CFF8018381948190931C1140
S113308080931B110B5F1F4F10931E1100931D1192
S1133090FF2051F3F1E0FF1254C0A1E0B0E002C000
S11330A0AA0FBB1FEA94E2F7119620EC33E00E94CA
S11330B0512E6093151170931611809317119093EC
S11330C018118091C5119091C61190931A11809393
S11330D0191183E080933D1188E080933E11809123
S11330E0BF1191E0980F9093BF1180933F118FEF20
S11330F08093401180934111809342118093431136
S113310087E0809344118FEF9FEF0E941317811182
S1133110A9CF6DE371E18AE00E94880D882309F448
S1133120A1CF8FB78B83F89482E0809309018B81C0
S11331308FBFE0911D11F0911E11128281E08183F5
S1133140AFC082E0F81247C0A1E0B0E002C0AA0F0D
S1133150BB1FEA94E2F7119620EC33E00E94512E53
S11331606093151170931611809317119093181191
S11331708091C5119091C61190931A1180931911E1
S11331808FEF9FEF0E94131781116CCF86E10E948D
S1133190161E882309F466CF6091151170911611DB
S11331A0809117119091181120E030E048ED57E11B
S11331B00E941525882309F455CF8FB78A83F89484
S11331C082E0809309019A819FBFE0911D11F091E3
S11331D01E11128263C0E3E0FE1244CF80E098E740
S11331E0A0E0B0E08093151190931611A0931711ED
S11331F0B093181183E080933D1188EC80933E11C5
S11332008091BF1191E0980F9093BF1180933F116B
S11332108FEF8093401180934111809342118093EA
S1133220431180934411809345118091C711809379
S113323046118091C811809347118091C9118093E0
S113324048118091CA11809349118091CB118093C8
S11332504A118091CC1180934B118091CD118093B0
S11332604C118091CE1180934D1186E080934E11C4
S11332706DE371E184E10E94880D882309F4F2CEA4
S11332808FB78983F89482E08093090189818FBF85
S1133290E0911D11F0911E11128283E0818381E07F
S11332A00F900F900F90DF91CF911F910F91FF908E
S11332B0EF90DF900895FC018081882321F080E065
S11332C090E00C94D81786E10E94161E8823B9F367
S11332D06091151170911611809117119091181128
S11332E020E030E048ED57E10E941525882339F3AA
S11332F008951F93CF93DF9300D0CDB7DEB7142F7B
S1133300209109012B7F29F58F3F2FEF920709F1B7
S113331025EF260F2031E8F46A830E9413176A818F
S1133320811117C0862F0E94811E882391F010936B
S1133330BE11812F0E94D91D81E08093BD118FB7EA
S11333408983F89485E08093090189818FBF80E0A7
S113335003C00E94431D88EE0F900F90DF91CF9120
S11333601F9108951F920F920FB60F9211240BB65E
S11333700F922F933F934F935F936F937F938F930A
S11333809F93AF93BF93EF93FF9386B3856086BB00
S113339028988FE88EBD0DB407FEFDCF8EB58EBD87
S11333A00DB407FEFDCF8EB5289AE091CC02F091C2
S11333B0CD02309709F00995FF91EF91BF91AF913C
S11333C09F918F917F916F915F914F913F912F9139
S11333D00F900BBE0F900FBE0F901F9018951F9269
S11333E00F920FB60F9211248F939F9380913412F2
S11333F090913512019690933512809334129F91D7
S11334008F910F900FBE0F901F9018951F920F92DF
S11334100FB60F9211240BB60F922F933F934F9335
S11334205F936F937F938F939F93AF93BF93EF9328
S1133430FF938091650D9091660D892B31F48091F5
S11334406F008D7F80936F003DC08091610D9091DE
S1133450620D009779F001979093620D8093610D4E
S113346080918400909185000197909389008093C6
S1133470880028C020915F0D3091600D2115310521
S113348079F08091840090918500820F931F90932E
S11334908900809388001092600D10925F0D12C015
S11334A080916F008D7F80936F00E091650DF091A6
S11334B0660D8091630D9091640D09951092660DCF
S11334C01092650DFF91EF91BF91AF919F918F91F4
S11334D07F916F915F914F913F912F910F900BBE10
S11334E00F900FBE0F901F9018951F920F920FB65A
S11334F00F9211248F939F9380915D0D90915E0D97
S1133500019690935E0D80935D0D8091840090915F
S113351085008659974E90938B0080938A009F91E3
S11335208F910F900FBE0F901F9018951092CD029F
S11335301092CC02249A259A269AE4E6F0E080813F
S11335408B7F808384B1876084B985B1836085B9BA
S113355080E58CBD81E08DBD0895E4E6F0E08081D6
S1133560846080830895CF93DF931F92CDB7DEB735
S113357080689FB79983F89428988EBD0DB407FE90
S1133580FDCF8EB51EBC0DB407FEFDCF8EB5289AB7
S113359099819FBF0F90DF91CF910895CF93DF93CF
S11335A01F92CDB7DEB7806C9FB79983F8942898A3
S11335B08EBD0DB407FEFDCF8EB56EBD0DB407FEF6
S11335C0FDCF8EB5289A89818FBF0F90DF91CF915F
S11335D00895CF93DF9300D0CDB7DEB74A836983D4
S11335E00E94B31A6981862390E04A8102C09595AE
S11335F087954A95E2F70F900F90DF91CF91089548
S11336001F93CF93DF9300D01F92CDB7DEB7182F4F
S11336102B834A8369830E94B31A6981962F9095FC
S113362098232B814A8101C0220F4A95EAF7262369
S1133630922B692F812F0F900F900F90DF91CF91D4
S11336401F910C94CE1ACF93DF931F92CDB7DEB7A0
S11336509FB79983F894289890E69EBD0DB407FE11
S1133660FDCF9EB58EBD0DB407FEFDCF9EB5FB010B
S1133670860F91919EBD0DB407FEFDCF9EB58E13AE
S1133680F8CF289A89818FBF0F90DF91CF91089549
S1133690CF93DF931F92CDB7DEB79FB79983F8948A
S11336A0289890E69EBD0DB407FEFDCF9EB58EBD55
S11336B00DB407FEFDCF9EB5FB01860F94919EBD10
S11336C031960DB407FEFDCF9EB58E13F7CF289A21
S11336D089818FBF0F90DF91CF910895CF93DF93AE
S11336E01F92CDB7DEB79FB79983F894289890E2DC
S11336F09EBD0DB407FEFDCF9EB5FB019083860FE2
S11337001EBC0DB407FEFDCF9EB591938E13F8CF6A
S1133710289A89818FBF0F90DF91CF910895CF931D
S1133720DF931F92CDB7DEB72FB72983F894909318
S1133730CD028093CC0289818FBF0F90DF91CF910E
S11337400895CF93DF931F92CDB7DEB78FB78983E8
S1133750F8941092CD021092CC0289818FBF0F9001
S1133760DF91CF9108955D98F894FFCF8DEE80930B
S1133770640089E88093650080B7806880BF80EF2B
S113378080937E000E943123811102C080E008955D
S11337900E94AD238823D1F327E13CE045E060E2B9
S11337A070E087E79BE00E94B523882379F32BE63A
S11337B03BE04FE063E970E08EEC92E00E94B523B9
S11337C0882321F30E94BD24882301F3579A6F9A1A
S11337D06E9A559A5F98779A769A5D9A089588E1D9
S11337E00FB6F89480936000109260000FBE0E94A0
S11337F0B61B882331F00E94BF0A811104C00E94C5
S1133800F40A0E94B31B0E947809811103C00E942C
S1133810E909F7CF0E94F40A5F9A78940E9474230E
S11338200E9482250E9488210E9444020E94100A5C
S1133830F5CF83FFB8C08091270C811150C08091CF
S1133840230C9091240C892B09F4ADC0289880E2B4
S11338508EBD0DB407FEFDCF8EB58093280C8EBDB2
S11338600DB407FEFDCF8EB58F778093280C289A70
S11338708091280C883008F496C0289882E88EBD80
S11338800DB407FEFDCF8EB58EBD0DB407FEFDCF82
S11338908EB5289A289892EC9EBD807E89600DB4DE
S11338A007FEFDCF9EB58EBD0DB407FEFDCF8EB5D0
S11338B0289A30913312332309F451C02091E11135
S11338C044E0249FF0011124EE51FE4E8091230C1C
S11338D09091240C9183808388E29CE052C01092E2
S11338E0270C289882E88EBD0DB407FEFDCF8EB557
S11338F080930A018EBD0DB407FEFDCF8EB5809373
S11339000A01289A80910A0182958695877080938E
S11339100A01289882E88EBD0DB407FEFDCF8EB54E
S11339208EBD0DB407FEFDCF8EB5289A289892EC73
S11339309EBD807E83600DB407FEFDCF9EB58EBD17
S11339400DB407FEFDCF8EB5289A8091250C909179
S1133950260C009741F130913312311106C0809149
S113396032128F5F8093321208952091E11144E066
S1133970249FF0011124EE51FE4E918380838AE04E
S113398091E093838283233119F41092E11103C0EF
S11339902F5F2093E1113150309333128091E01165
S11339A08F5F8093E0110895CF938FEF80930A0186
S11339B01092280C1092270C1092260C1092250CB1
S11339C01092240C1092230C0E94961AC82F811175
S11339D002C0C0E055C08BEF93E00197F1F700C03F
S11339E000002E982D982C9890E19A95F1F72D9A35
S11339F08FE599E00197F1F700C000008FE599E0A9
S1133A000197F1F700C0000023E040E06FE182E09D
S1133A100E94001B8BEF93E00197F1F700C00000B8
S1133A2040E06FE181E00E94E91A883091F68DE16F
S1133A300E94B31A823069F68EE10E94B31A8F3164
S1133A4041F689E19CE10E948F1B20E043E068E09D
S1133A5083E00E94001B20E040E067E083E00E94D6
S1133A60001B21E047E060E885E00E94001B6CE059
S1133A708EE00E94CE1A80916F00806280936F0066
S1133A808C2FCF9108951092270C1C9916C040E0FA
S1133A906FE181E00E94E91A883041F42C9A8FE5A5
S1133AA099E00197F1F700C00000089528E040E094
S1133AB06FE182E00E94001BEACF08950E94A11BDF
S1133AC00E94431D0C94AD1A1092270C1C9B11C02C
S1133AD02C988FE99FE00197F1F700C0000040E0C7
S1133AE06FE181E00E94E91A91E0883019F090E0DA
S1133AF001C091E0892F08950E94641D23E040E0F5
S1133B006FE182E00E94001B40E06FE181E00E94CF
S1133B10E91A883099F71092280C1092270C08950E
S1133B20CF93DF931F92CDB7DEB7682F82E29983DC
S1133B300E94CE1A9981692F83E20F90DF91CF9171
S1133B400C94CE1ACF93DF931F92CDB7DEB7682FB4
S1133B5080E299830E94CE1A9981692F81E20F90A5
S1133B60DF91CF910C94CE1ACF93DF93EC0168814F
S1133B7084E20E94CE1A698185E20E94CE1A6A818B
S1133B8086E20E94CE1A6B8187E20E94CE1A6C8173
S1133B9088E20E94CE1A6D8189E20E94CE1A6E815B
S1133BA08AE20E94CE1A6F818BE2DF91CF910C944E
S1133BB0CE1A811102C020E001C021E043E068E098
S1133BC08EE20C94001BCF93DF931F92CDB7DEB728
S1133BD08823B9F061157105A1F09FB79983F89412
S1133BE09091270C992319F089818FBF0AC02C9AD0
S1133BF02C9899819FBF0E94231B81E08093270CFE
S1133C0001C080E00F90DF91CF910895882339F0AF
S1133C106115710521F00E946E1B81E0089580E01A
S1133C20089540E06FE181E00C94E91ACF93DF93AB
S1133C30C82F1092270C88EF8C0F823038F08C2F0D
S1133C408F7E863019F0C93109F054C01C9952C0D6
S1133C5040E06FE181E00E94E91AD82F8F7E815005
S1133C60823008F447C0CD1709F446C0C83059F46F
S1133C702C9880E18A95F1F723E040E06FE182E03F
S1133C800E94001B2BC0C93161F4D631C1F429E074
S1133C9040E06FE182E00E94001B82E08A95F1F728
S1133CA00DC0C63161F4D93151F426E040E06FE132
S1133CB082E00E94001B92E09A95F1F700C02C2F3D
S1133CC040E06FE182E00E94001BD83039F487E6BF
S1133CD091E00197F1F700C0000004C092E09A95CA
S1133CE0F1F700C040E06FE181E00E94E91A91E041
S1133CF08C1719F090E001C091E0892FDF91CF91EA
S1133D000895CF93C82F85EF8C0F803168F42C2F42
S1133D1040E06FE188E00E94001B40E06FE188E032
S1133D200E94E91A91E0C81390E0892FCF91089579
S1133D30CF93DF931F92CDB7DEB72FB72983F894C3
S1133D409093260C8093250C89818FBF0F90DF916F
S1133D50CF910895CF93DF931F92CDB7DEB72FB7DE
S1133D602983F8949093240C8093230C89818FBF2A
S1133D700F90DF91CF910895EBEEF0E09081916088
S1133D8090838093EC00EDEEF0E080818270682BEC
S1133D9060838081826080838091EE00881F882701
S1133DA0881F08958091D8008F7B8093D8008091DC
S1133DB0D90081FF0CC01092E9008091EB0080FDD6
S1133DC006C01092E90060E382E00C94BC1E80E01F
S1133DD0089580E00895CF93DF93C9EED0E084E0A6
S1133DE0888360E381E80E94BC1E82E0888360E3EC
S1133DF080E80E94BC1E81E0888364E381E8DF914F
S1133E00CF910C94BC1E833021F5613089F050F0C1
S1133E106230A1F06330E9F48CE18093DC118FE02F
S1133E2091E011C084E08093DC118BE091E00BC041
S1133E308CE08093DC1181E491E005C086E18093FD
S1133E40DC118BE291E09093DE118093DD1181E02F
S1133E50089580E008958091F1008093290C909159
S1133E60F100492F50E04B30510508F094C1FA019C
S1133E70EE57FF4F0C944B2E803809F087C01092F8
S1133E802D0C6091F1008091F100813041F082307D
S1133E9081F487E28093DC118DE491E005C082E136
S1133EA08093DC1184E791E09093DE118093DD111F
S1133EB005C00E94031F882309F472C18091F10098
S1133EC08091F1008091F1002091F10090E0922B1B
S1133ED02091E800277F2093E8004091DC11242FF3
S1133EE030E02817390748F44F7321F481E08093B8
S1133EF02D0C18C010922D0C15C08093DC1112C02B
S1133F008091E80082FD2BC08091E80080FFFCCF07
S1133F1021E48091DC1181110AC08091E8008E7F38
S1133F208093E8008091DC118111EACF18C0215000
S1133F30A1F3E091DD11F091DE1180818093F10015
S1133F408091DD119091DE1101969093DE118093A2
S1133F50DD118091DC1181508093DC11DACF8091E6
S1133F60E8008E7F8093E8008091E80082FDF4C031
S1133F7080912D0C882329F08091E8008E7F809316
S1133F80E8008091E80082FFFCCFE6C066E001C152
S1133F908038C1F48091E800877F8093E8008091A5
S1133FA0DB118093F1008091E8008E7F8093E8001C
S1133FB08091E8008F778093E8008091E80082FF89
S1133FC0FCCFCAC068E0E5C081111DC08091F1003A
S1133FD09091E3008F779078892B8093E300809110
S1133FE0E800877F8093E8008091E8008E7F8093CB
S1133FF0E8008091E80080FFFCCF8091E3008068B6
S11340008093E300089565E0C4C0811113C09091CA
S1134010F100923008F0C4C08091E800877F80935B
S1134020E8009093DB118091E8008E7F8093E80094
S11340300C94EB1E69E0ADC0833088F5882309F445
S1134040AFC0813009F4ACC08091F1008111A8C0E7
S1134050E091F100EF77E093E9008091EB0080FFBD
S11340609FC0EE23A9F08091EB0080618093EB0068
S113407081E090E00E2E01C0880F0A94EAF7809345
S1134080EA001092EA008091EB0088608093EB00D4
S11340901092E900F0E0E65DF34F108225C061E084
S11340A078C0833050F5813009F47AC0823009F049
S11340B081C08091F100811173C0E091F100EF772C
S11340C009F46EC0E093E9008091EB0080FF68C0C2
S11340D08091EB0080628093EB001092E900F0E0A5
S11340E0E65DF34F81E080838091E800877F8093D1
S11340F0E8008091E8008E7F5BC063E04AC090E8EE
S1134100980F933090F59091F1009091F100E09127
S1134110F100813811F0823841F08091E800877F06
S11341208093E8001092F1000CC08091E800877F32
S11341308093E800EF77F0E0E65DF34F80818093B1
S1134140F1001092F1008091E8008E7F8093E800E6
S11341508091E80082FFFCCF8091E8008B7F809300
S1134160E8008091E8008F7723C060E012C08138B6
S113417079F48091F1008091F1008091F100209117
S1134180F10090E0922B9093DA118093D91108C03A
S11341906AE00C94E91E692F0E94E91E81110AC08D
S11341A08091EB0080628093EB008091E800877F30
S11341B08093E80008958F929F92AF92BF92CF921E
S11341C0DF92EF92FF920F931F93CF93DF93F22E20
S11341D0E32ED42EC52EB62EA72E982E892E1092FD
S11341E0560D1092550D1092540D1092330C1092DE
S11341F0320C1092310C1092DF111092300C10928C
S11342002F0C10922E0CE0916500EF77E09365007F
S1134210A1E1B1E0E0E0F0E02F2D3E2D4D2D5C2D2D
S11342206B2D7A2D892D982D0E2F0E945A2E022F38
S113423002950F700A3010F4005D01C0095C10E0B3
S113424011961C930E93C22FCF70CA3010F4C05D28
S113425001C0C95CD0E01396DC93CE9312973896D4
S11342601496E033F105C1F68091D7008F7B8093DB
S1134270D7008091D70080688093D7008091D800C0
S113428080698093D8008091D8008F7B8093D80078
S11342908091D80081608093D800DF91CF911F91E5
S11342A00F91FF90EF90DF90CF90BF90AF909F90D1
S11342B08F900895E8EDF0E080818F768083E5E6C5
S11342C0F0E080818068808308958091D7008160C8
S11342D08093D7008EE089BD09B400FEFDCF8091A4
S11342E0D8008F7D8093D8008091E2008160809314
S11342F0E2008091E20088608093E2000E94D21E76
S11343008091E0008E7F8093E0001092560D089516
S11343108091D90080FF11C08091560D81110DC08C
S113432081E08093560D8091E20088608093E200E2
S11343308091E0008E7F8093E0008091550D88236A
S113434049F081E08093EA001092EA001092540D43
S11343501092550D1092E9008091E80083FD0E94AF
S11343602B1F8091310C882309F447C08091300CB5
S11343708093E9008091E80082FF3FC08091E800CB
S11343808B7F8093E8002091F2008091320C909111
S1134390330C820F911D8132914010F4322F06C0EC
S11343A01092310C81E08093DF110895332389F05A
S11343B08091320C9091330C4091F100FC01EC5C43
S11343C0F34F408301969093330C8093320C315019
S11343D0EDCF8091E8008F778093E800203450F689
S11343E01092310CE0912E0CF0912F0C64E37CE0E0
S11343F08091320C9091330C09940895CF93DF93FC
S11344001F92CDB7DEB7FC01009711F18091310CFA
S113441081111CC080818823D9F08FB78983F894D7
S113442080818093300C8181928190932F0C8093B2
S11344302E0C1092330C1092320C81E08093310CCC
S11344401092DF1189818FBF80E003C081E001C039
S113445082E00F90DF91CF910895CF93DF931F9265
S1134460CDB7DEB78FB78983F8941092310C898168
S11344708FBF0F90DF91CF910895CF93DF931F9259
S1134480CDB7DEB78FB78983F89481E08093310C80
S11344901092DF111092330C1092320C89818FBF6D
S11344A00F90DF91CF9108958093E9008091E80007
S11344B080FF40C0862F90E0CF9626E096958795A2
S11344C02A95E1F7382F262F2F7319F431E0380F8E
S11344D003C0262F613408F020E48091E8008E7F29
S11344E08093E800822FFA01882329F09191909318
S11344F0F1008150F9CF420F511D60548091E800C2
S11345008F778093E800603410F020E401C0262FF8
S113451031508FEF9FEF7091E80070FD07C0009756
S113452019F4769881E008950197F5CF3111D5CF2C
S113453080E0089584E008951F920F920FB60F92C1
S113454011240BB60F922F933F934F935F936F9366
S11345507F938F939F93AF93BF93EF93FF93809138
S1134560DA0080FF19C08EEF8093DA008091D900C1
S113457080FF10C081E08093560D8091E200886036
S11345808093E2000E9465218091E0008E7F8093F9
S1134590E00002C01092560D8091DA0081FF05C040
S11345A08DEF8093DA008091D9008091E10082FF41
S11345B003C08BEF8093E1008091E10080FF10C085
S11345C08EEF8093E1008091E20080618093E200AD
S11345D08FEE8093E1008091D80080628093D800B0
S11345E08091E10084FF0DC08091D8008F7D80937D
S11345F0D8008FEE8093E1008091E2008F7E80935B
S1134600E2008091E10085FF0DC08091E2008F7E81
S11346108093E2008FED8093E1008091E2008F7D32
S11346208093E2008091E10083FF08C087EF8093CC
S1134630E1000E94D21E81E08093550DFF91EF911D
S1134640BF91AF919F918F917F916F915F914F91A6
S11346503F912F910F900BBE0F900FBE0F901F90A4
S113466018951092E11183E18093570D1092E01197
S113467084E1809333121092321281E00895CF9333
S1134680DF931F92CDB7DEB720913312222339F185
S1134690E091E11124E0E29FF0011124EE51FE4E7D
S11346A091838083738362838FB78983F894809125
S11346B0E111833119F41092E11103C08F5F8093EB
S11346C0E1118091E0118F5F8093E01180913312AA
S11346D081508093331289818FBF81E001C080E0D3
S11346E00F90DF91CF910895CF93DF931F92CDB7B1
S11346F0DEB78FB78983F8948091E011811103C0EC
S113470089818FBF26C09091570D933119F410926F
S1134710570D03C09F5F9093570D81508093E01114
S1134720809133128F5F8093331289818FBFA09160
S1134730570D84E0A89FD0011124AE51BE4EED91D7
S1134740FC911197309729F012968D919C911397B3
S113475009950F90DF91CF91089510925A0D109200
S1134760590D1092580D81E00895BF92CF92DF92B7
S1134770EF92FF920F931F93CF93DF931F92CDB7C6
S1134780DEB7F901009709F46BC0423008F468C041
S11347906230710508F464C02FB72983F8949C0132
S11347A0260F371FDC01B12C042F10E0780151E0F3
S11347B0E51AF108CB2CD12CCE14DF043CF42D9354
S11347C03C93B394D901260F371FF4CF1D921C924A
S11347D0718360834283438395838483069F90011E
S11347E0079F300D169F300D112421503109280FD9
S11347F0391F378326839187808740915A0D411151
S113480007C013861286F093590DE093580D21C00A
S11348108091580D9091590D542FDC012D913C91AC
S113482011972617370760F41A963C911A971B962E
S11348302C911B975150CD0129F0A32FB22FEECF0D
S11348403A2F2B2FDC011B96FC93EE931A97328799
S113485023874F5F40935A0D89818FBF81E001C048
S113486080E00F90DF91CF911F910F91FF90EF9017
S1134870DF90CF90BF900895CF93DF931F92CDB771
S1134880DEB70097A1F120915A0D222381F12FB7B1
S11348902983F894E091580DF091590D50915A0DD7
S11348A040E05523E1F041110FC0208131812817E8
S11348B0390718F02381211105C00284F385E02D06
S11348C05150EFCF41E0EDCFA085B1858D919C9102
S11348D011979187808783818150838304C041111C
S11348E0F3CFA0E0B0E089818FBFCD0102C080E0AA
S11348F090E00F90DF91CF910895CF93DF931F92B3
S1134900CDB7DEB70097A9F120915A0D222389F182
S11349102FB72983F894E091580DF091590D7091B7
S11349205A0D60E0772399F0611113C02681378115
S1134930448155818417950718F02817390728F4FE
S11349400284F385E02D7150EDCF61E0EBCF662357
S113495071F033812281321760F420853185DC01C6
S11349602D933C939187808783818F5F8383898193
S11349708FBF0F90DF91CF9108951092351210924E
S113498034121092660D1092650D1092640D1092FF
S1134990630D1092620D1092610D1092600D1092D1
S11349A05F0D10925C0D10925B0D10925E0D1092D3
S11349B05D0DE4E6F0E08081877F808383E480936B
S11349C0810080918400909185008659974E909340
S11349D08B0080938A008FEF86BB85E080936F0005
S11349E081E008950F931F93209134123091351272
S11349F060913412709135120091840010918500F9
S1134A0080913412909135122817390769F7CB0138
S1134A10A0E0B0E07727662720E030E0602B712B20
S1134A20822B932B1F910F9108950F931F93CF9374
S1134A30DF931F92CDB7DEB74115510509F444C089
S1134A40EFB7E983F894E091650DF091660DEF2BD3
S1134A5019F089818FBF38C05093660D4093650D5E
S1134A603093640D2093630D8C0122273327109318
S1134A70620D0093610D7093600D60935F0D0115DD
S1134A80110579F42091840030918500260F371F99
S1134A9030938900209388001092600D10925F0D6E
S1134AA009C08091840090918500019790938900BA
S1134AB080938800B19A80916F00826080936F0028
S1134AC089818FBF81E001C080E00F90DF91CF9199
S1134AD01F910F910895CF93DF931F92CDB7DEB747
S1134AE08FB78983F894EFE6F0E080818D7F80832F
S1134AF01092660D1092650D89818FBF0F90DF9122
S1134B00CF910895CF93DF9300D0CDB7DEB78091D6
S1134B105B0D90915C0D892B51F48FB78A83F894C7
S1134B2010925E0D10925D0D8A818FBF1AC0809124
S1134B305D0D90915E0D892BA1F0E0915B0DF091DC
S1134B405C0D09958FB78983F89480915D0D9091E0
S1134B505E0D019790935E0D80935D0D89818FBFEB
S1134B60E6CF0F900F90DF91CF9108950895CF93E2
S1134B70DF93CDB7DEB729970FB6F894DEBF0FBE2B
S1134B80CDBFEFB7E983F89410926C0D10926B0DC2
S1134B9010926A0D1092690D1092680D1092670DB3
S1134BA0E981EFBF2A833B834C835D836E837F83DC
S1134BB0888799870E948D2D0E94C62B2A813B816C
S1134BC04C815D816E817F81888599850E94840BEB
S1134BD08823C1F08AEA97E20E94EC0B8EEF99E2F7
S1134BE00E94030C81E89BE20E941A0C86EB95E27A
S1134BF00E94310C82E59AE20E94480C10928601D0
S1134C0081E001C080E029960FB6F894DEBF0FBEA4
S1134C10CDBFDF91CF910895CF93DF931F92CDB78E
S1134C20DEB7809186018130B1F00E94CD0B8FB741
S1134C308983F89410926C0D10926B0D10926A0D8A
S1134C401092690D1092680D1092670D89818FBFC3
S1134C5081E0809386010F90DF91CF910895809138
S1134C606B0D90916C0D0895CF93DF931F92CDB788
S1134C70DEB72FB72983F89490936C0D80936B0D56
S1134C8089818FBF0F90DF91CF9108958091690D35
S1134C9090916A0D0895CF93DF931F92CDB7DEB73D
S1134CA02FB72983F89490936A0D8093690D8981B5
S1134CB08FBF0F90DF91CF9108958091670D9091F0
S1134CC0680D0895CF93DF931F92CDB7DEB72FB74A
S1134CD02983F8949093680D8093670D89818FBF21
S1134CE00F90DF91CF910895CF93DF93009799F0C0
S1134CF0E091710DF091720D309769F0A0916F0DF4
S1134D00B091700D109739F0EC0188818C93CD012E
S1134D10DF91CF910994DF91CF910895CF93DF93E1
S1134D20EC01009761F00E942F26FC01CE01309720
S1134D3011F00995CE01DF91CF910C947D24DF9180
S1134D40CF91089580916D0D90916E0D0E947D24F8
S1134D500C949C172091D7113091D811211531054D
S1134D60A1F420914E1230914F1228173907E0F127
S1134D700197B9010E94372E629FC001639F900D75
S1134D80729F900D1124019608952817390740F554
S1134D9040914C1250914D12420F531F84179507A6
S1134DA0F8F4E0914E12F0914F12AF01420F531FED
S1134DB048175907C8F0A90140955095480F591F45
S1134DC0CA01BF010E94372E6E9FA0016F9F500D34
S1134DD07E9F500D1124C9010196840F951F0895DB
S1134DE08091C3119091C41108957F928F929F92E4
S1134DF0AF92BF92CF92DF92EF92FF920F931F93E5
S1134E00CF93DF93EC01809186018350833008F0C7
S1134E1057C0209709F454C08F819885892B09F4D1
S1134E204FC089859A85892B09F44AC02091D711EE
S1134E303091D81189819A812817390709F440C023
S1134E408E819FEF980F9E35D8F590E008960E94CA
S1134E503C248C010097A1F184E0F8018083118245
S1134E6089819A81938382838091D7119091D811FB
S1134E70958384838B81811102C082E001C0F80193
S1134E8086838091671291E0980F90936712F801DE
S1134E9087834E8150E06F817885C80108960E940F
S1134EA0182E7E80F8E07F0E89819A810E94AA26BE
S1134EB04C018FEF8816980629F4C8010E947D24BE
S1134EC0C0E039C0E2E0EC872091D7113091D811CD
S1134ED02D873E871F86188A198A1A8A1B8A1C8A7C
S1134EE0ED8B8091C5119091C6119F8B8E8B888E0E
S1134EF0998E1A8E1B8E1C8E1D8E1E8E1F8E81E027
S1134F0088A379A21BA30AA384E796E29DA38CA39A
S1134F1089859A859093720D8093710DCE010B96BD
S1134F209093700D80936F0D01960E94C713C82F44
S1134F30C8010E947D248C2FDF91CF911F910F9186
S1134F40FF90EF90DF90CF90BF90AF909F908F90A5
S1134F507F900895EF92FF920F931F93CF93DF9367
S1134F607C01FC018589883008F48DC0018D10E036
S1134F70102F0027908D092B2091D7113091D81133
S1134F800217130709F453C08BE190E00E943C24FC
S1134F90EC0190936E0D80936D0D009759F0C8014C
S1134FA00E94AA268C018F3FFFEF9F0759F4CE0180
S1134FB00E947D24DF91CF911F910F91FF90EF907C
S1134FC00C949C17E2E0E8832091D7113091D8111A
S1134FD029833A831B821C821D821E821F821886AB
S1134FE0E9878091C5119091C6119B878A870C87A8
S1134FF01D871E861F86188A198A1A8A1B8A81E0D1
S11350008C8BF70185898D8BF6E1EF0EF11CFF8AFD
S1135010EE8A82EA96E2998F888FCE010E94C713A6
S11350208111C8CF80916D0D90916E0DC1CF90E02C
S113503001970E943C24EC01009729F181E08883C8
S11350401A830983F701838D90E0982F8827228D96
S1135050822B9C838B8384898D83858988508E835E
S1135060458950E048505109B701625E7F4FCE0137
S113507007960E94182EBE018EE896E20E943F23F6
S1135080811198CF94CFDF91CF911F910F91FF9011
S1135090EF90089510928601E0913612F091371244
S11350A00994CF93DF93EC010E945F0C6091381256
S11350B0709139128881FB01EF5BFF4F80838091EF
S11350C04412EB018993809145129091461220E19C
S11350D0009769F0FC013496DE01322F01900D92A5
S11350E03A95E1F76096FC0180819181F1CF8AE4E1
S11350F098E2DF91CF910C943F23CF93DF93EC019F
S11351008981823009F04DC08C819D810E94B22C2E
S1135110892B09F046C00E94F22BFC01009731F460
S113512080E090E0DF91CF910C94172C8A819B81D1
S113513095838483168217821086118612861386BD
S1135140148615868C8586871786108A8D859E859C
S1135150282F2F70218B282F22952F70228B97FDBB
S113516002C0138A02C081E0838B148A158A168ACE
S1135170178A108E118E128E138E8C819D81958FBD
S1135180848F83E0868F178E80A38FE081A312A281
S113519081E083A38F8584A3CF01DF91CF910C9409
S11351A0392CDF91CF910895CF93DF93FC01809147
S11351B08601882311F080E029C03097E1F38281D1
S11351C093810097C1F39093371280933612CF01E5
S11351D004969093391280933812EF01CA5BDF4F23
S11351E081E088838081898381818A8381E598E253
S11351F09C838B838DE798E20E94710CCE010E9400
S113520010188823C1F292E090938601DF91CF9128
S1135210089520918601222311F080E008950097DB
S1135220E1F341E0FC016081818192810E9479195E
S11352308111F3CF80E090E00E9427178111EDCF18
S11352400E949C178111E9CF10926312109262128E
S11352500E94D22D90934F1280934E1290934D1230
S113526080934C1283E08093860182E080935012F5
S113527081E00895CF93DF93FC01C0913A12D0915D
S11352803B1280819181998388838091C51190918B
S1135290C6119B838A8382818C838281811122C07F
S11352A080819181909363128093621210924F12C5
S11352B010924E126091D7117091D8118091C31140
S11352C09091C4110E94872D81500E94D22D9093F9
S11352D04D1280934C1285E08093860183E0809385
S11352E050120AC080913612909137120E94B22C4B
S11352F0009711F00E946B2CE0913812F091391252
S1135300CE01DF91CF910994CF93DF93EC01009705
S113531061F00E944626FC01CE01309711F00995F8
S1135320CE01DF91CF910C947D24DF91CF9108952C
S11353300F931F93FC01009709F45CC08681978149
S1135340009709F457C02281211154C0209186018D
S1135350211150C0A0914512B0914612109709F442
S113536049C014962D913C91159740815181241781
S1135370350729F453964C915397411104C00D906D
S1135380BC91A02DEBCF1E964C911E97458742E011
S11353904687308B27875C960D90BC91A02D8D019C
S11353A0A18B128B138A148A158A168A178A108E77
S11353B02381211122E03481313009F424603581C4
S11353C031112860218F2AE339E2338F228F9093A1
S11353D0391280933812CF01089690933B12809330
S11353E03A12B0933712A093361205961F910F917B
S11353F00C94E80D80E01F910F9108950F931F9373
S1135400CF93DF93EC018BE090E00E943C248C016D
S1135410009709F442C088E0FE01D80101900D9282
S11354208A95E1F7888590E0909339128093381239
S1135430288139814A815B816C817D818E819F8144
S11354400E94CB2C0097A1F4888581FD03C00E94A3
S1135450412D02C00E94182D009751F48FEF9FEF49
S1135460F8019187808781E082871092BC110BC07C
S1135470FC01848D958DF801918780879093371274
S1135480809336121286C8010E94CA0FC801DF91A8
S1135490CF911F910F910C947D24DF91CF911F9197
S11354A00F9108950F931F93CF93DF938C01FC0109
S11354B0848981113EC08BE090E00E943C24EC0181
S11354C00097B9F18091361290913712DE018D93D5
S11354D09D93045F1F4F88E0F80101900D928A9517
S11354E0E1F7809138128A878091361290913712B1
S11354F00E94B22C009779F0DC01549628E0F80160
S113550001900D922A95E1F72091361230913712CD
S1135510FC01358F248FBE0184E899E20E943F2369
S1135520811107C0CE01DF91CF911F910F910C948F
S11355307D24DF91CF911F910F910895CF93DF9335
S1135540EC0180915012833039F40E948D2D0E9419
S1135550C62B1092860107C0813011F483E001C08C
S113556084E080938601E0913812F09139127091B1
S11355703A1260913B1250913C1240913D1230918D
S11355803E1220913F1290914012809141127083FB
S11355906183528343833483258396838783A091D5
S11355A03812B0913912888118968C931897E0912B
S11355B03612F0913712CD01DF91CF910994AF9259
S11355C0BF92CF92DF92EF92FF920F931F93CF93EC
S11355D0DF93EC01009711F480E088C08C859D85F1
S11355E0892BD1F38E01095E1F4FB880C980DA8000
S11355F0EB80FC80BD81FE81EF812B2D3C2D4D2D58
S11356005E2D6F2D7B2F8F2F9E2FA0E0A090501228
S11356100E947F2EE9F483E0A812DECF8091CF119F
S11356208F8B8091D011888F8091D111898F809137
S1135630D2118A8F8091D3118B8F8091D4118C8F4A
S11356408091D5118D8F8091D6118E8F82E01CC0F0
S11356508FEF8A0D823008F0BFCF2B2D3C2D4D2DBE
S11356605E2D6F2D7B2F8F2F9E2F0E94CB2C0097AA
S113567009F4B2CF0E946B2C88E0FE01D80101909E
S11356800D928A95E1F781E08F8F8EE99AE299A3D2
S113569088A38C859D859093371280933612CE0112
S11356A00E969093391280933812788169815A81C9
S11356B04B813C812D819E818F8170933A1260933E
S11356C03B1250933C1240933D1230933E12209370
S11356D03F129093401280934112C8010E94851595
S11356E0882309F479CF96E090938601DF91CF91D6
S11356F01F910F91FF90EF90DF90CF90BF90AF90EC
S11357000895EF92FF920F931F93CF93DF93EC01D1
S1135710809150128150823088F4288139814A81E5
S11357205B816C817D818E819F810E94CB2C00974F
S113573029F00E946B2C81E08093BC110E945D26AD
S11357407C010097E1F089E090E00E943C248C0108
S11357500097A9F088E0FE01D80101900D928A9586
S1135760E1F7F8011086C801F7010995C801DF9136
S1135770CF911F910F91FF90EF900C947D24DF91B6
S1135780CF911F910F91FF90EF90089510924412C2
S11357901092431210924212109246121092451225
S11357A088E79DE09093770D8093760D80E090E0FC
S11357B0E8E7FDE09C012356324F31832083859630
S11357C0883743E0940711F0F901F4CF1092F110F7
S11357D01092F01089E18093750D1092740D10925F
S11357E0730D0895CF93DF931F92CDB7DEB78FB7B4
S11357F08983F8942091750D211105C089818FBF8B
S113580080E090E010C0E091760DF091770D8081FA
S113581091819093770D8093760D21502093750D8F
S113582089818FBFCF010F90DF91CF910895CF93DE
S1135830DF931F92CDB7DEB72FB72983F894409139
S1135840750D493181F0009771F02091760D3091FA
S1135850770DFC01318320839093770D8093760D2F
S11358604F5F4093750D89818FBF0F90DF91CF916A
S11358700895CF93DF931F92CDB7DEB7FC01009755
S113588031F18FB78983F894A0914212B0914312F9
S1135890109759F4F0934312E0934212F093461296
S11358A0E09345121382128209C01196FC93EE9381
S11358B0B383A283F0934312E093421211821082C5
S11358C089818FBF809144128F5F809344120F901F
S11358D0DF91CF910895CF93DF931F92CDB7DEB7B9
S11358E00097E1F12FB72983F894DC015E962C919F
S11358F0223031F42091740D21502093740D05C091
S11359002091730D21502093730DDC011296ED91BB
S1135910FC9113972D913C91309729F430934612C2
S11359202093451202C031832083DC012D913C91E8
S11359302115310529F4F0934312E093421205C076
S1135940D9011396FC93EE93129729812FBF2091CE
S113595044122150209344120E94172C0F90DF917F
S1135960CF91089550914412552381F0E09145124E
S1135970F091461240E0248D358D8217930749F04B
S11359800190F081E02D4F5F4513F5CF80E090E06A
S11359900895CF0108954F925F926F927F928F92F4
S11359A09F92AF92BF92CF92DF92EF92FF920F93AA
S11359B01F93CF93DF93E901942E852E762E672EC5
S11359C0582E492EB0914412BB23E9F0E0914512C0
S11359D0F0914612A0E0A488B588C688D788E08CE8
S11359E0F18C028D138D9E01492D582D672D762D36
S11359F0852D942D0E94762E49F00190F081E02DA2
S1135A00AF5FAB13E8CF80E090E001C0CF01DF913E
S1135A10CF911F910F91FF90EF90DF90CF90BF90A7
S1135A20AF909F908F907F906F905F904F9008956C
S1135A30CF93DF932091740D3091730D822F90E0FA
S1135A40830F911D4997C4F4211116C00E94F22BB3
S1135A50EC01009789F08091621290916312019693
S1135A609D8F8C8F82E08E8F81E08093740DCE01A8
S1135A700E94392CCE0102C080E090E0DF91CF91EA
S1135A800895DF92EF92FF920F931F93CF93DF93CA
S1135A90D090730D8091740D90E08D0D911D4997F8
S1135AA01CF080E090E02BC00E94F22BEC010097E8
S1135AB0C1F300914E1210914F1280916212909195
S1135AC06312080F191F0F5F1F4F78018E2D801B63
S1135AD08D1528F4C7010E94B22C892B61F4FD8E28
S1135AE0EC8E83E08E8FD394D092730DCE010E94FE
S1135AF0392CCE0104C08FEFE81AF80AE7CFDF9102
S1135B00CF911F910F91FF90EF90DF90089521E0C6
S1135B10892B09F020E0822F089583E08093681296
S1135B20809349121092611280935E121092651252
S1135B3010925D1281E080935F128093591210924B
S1135B404B1210924A1210925C1210925B1281E076
S1135B5090E090934F1280934E1284EF91E09093D3
S1135B604812809347128FEF9FEF909363128093B4
S1135B70621210925A1210925112109252121092F2
S1135B8053121092541210925512109256121092EF
S1135B9057121092581210924D1210924C121092E9
S1135BA050120895813039F0282F37EE3203C001A6
S1135BB011240196089580E090E008959091860163
S1135BC09350923020F48093BC1181E0089580E0DA
S1135BD0089580918601853011F080E0089541E0B8
S1135BE06091C2118091C5119091C6110E947919DA
S1135BF08111F3CF0E949C178111EFCF6091D711CF
S1135C007091D8118091C3119091C4110E94872D75
S1135C100E94D22D90934F1280934E1284E0809371
S1135C20860181E0809350120895F8940C949A2E82
S1135C30FB01DC0102C001900D9241505040D8F7A5
S1135C400895F999FECF92BD81BDF89A992780B540
S1135C500895262FF999FECF1FBA92BD81BD20BDAC
S1135C600FB6F894FA9AF99A0FBE01960895AA1BF2
S1135C70BB1B51E107C0AA1FBB1FA617B70710F033
S1135C80A61BB70B881F991F5A95A9F78095909565
S1135C90BC01CD010895EE0FFF1F0590F491E02D96
S1135CA009940E948B2EB7FF0895821B930B0895CD
S1135CB097FB10F8169400080F93083098F00850DA
S1135CC0232F342F452F562F672F782F892F902D70
S1135CD0F4CF05949795879577956795579547954C
S1135CE0379527950A95AAF70F9108952A153B052C
